{
  "contractName": "PeterPetDID",
  "abi": [
    {
      "constant": true,
      "inputs": [
        {
          "name": "",
          "type": "uint256"
        }
      ],
      "name": "dids",
      "outputs": [
        {
          "name": "did",
          "type": "string"
        }
      ],
      "payable": false,
      "stateMutability": "view",
      "type": "function"
    },
    {
      "constant": true,
      "inputs": [],
      "name": "owner",
      "outputs": [
        {
          "name": "",
          "type": "address"
        }
      ],
      "payable": false,
      "stateMutability": "view",
      "type": "function"
    },
    {
      "constant": false,
      "inputs": [
        {
          "name": "newOwner",
          "type": "address"
        }
      ],
      "name": "transferOwnership",
      "outputs": [],
      "payable": false,
      "stateMutability": "nonpayable",
      "type": "function"
    },
    {
      "inputs": [],
      "payable": false,
      "stateMutability": "nonpayable",
      "type": "constructor"
    },
    {
      "anonymous": false,
      "inputs": [
        {
          "indexed": true,
          "name": "previousOwner",
          "type": "address"
        },
        {
          "indexed": true,
          "name": "newOwner",
          "type": "address"
        }
      ],
      "name": "OwnershipTransferred",
      "type": "event"
    },
    {
      "constant": false,
      "inputs": [
        {
          "name": "_name",
          "type": "string"
        },
        {
          "name": "_birth",
          "type": "uint256"
        },
        {
          "name": "_breedOfDog",
          "type": "string"
        },
        {
          "name": "_gender",
          "type": "string"
        },
        {
          "name": "_adoptionDate",
          "type": "uint256"
        },
        {
          "name": "_isNeutering",
          "type": "bool"
        },
        {
          "name": "_furColor",
          "type": "string"
        },
        {
          "name": "_vaccinationHistory",
          "type": "string"
        },
        {
          "name": "_notes",
          "type": "string"
        }
      ],
      "name": "addDid",
      "outputs": [],
      "payable": false,
      "stateMutability": "nonpayable",
      "type": "function"
    },
    {
      "constant": false,
      "inputs": [
        {
          "name": "_did",
          "type": "string"
        },
        {
          "name": "_name",
          "type": "string"
        },
        {
          "name": "_birth",
          "type": "uint256"
        },
        {
          "name": "_breedOfDog",
          "type": "string"
        },
        {
          "name": "_gender",
          "type": "string"
        },
        {
          "name": "_adoptionDate",
          "type": "uint256"
        },
        {
          "name": "_isNeutering",
          "type": "bool"
        },
        {
          "name": "_furColor",
          "type": "string"
        },
        {
          "name": "_vaccinationHistory",
          "type": "string"
        },
        {
          "name": "_notes",
          "type": "string"
        }
      ],
      "name": "updateDid",
      "outputs": [],
      "payable": false,
      "stateMutability": "nonpayable",
      "type": "function"
    },
    {
      "constant": true,
      "inputs": [
        {
          "name": "_did",
          "type": "string"
        }
      ],
      "name": "getPetNameByDid",
      "outputs": [
        {
          "name": "_name",
          "type": "string"
        }
      ],
      "payable": false,
      "stateMutability": "view",
      "type": "function"
    },
    {
      "constant": true,
      "inputs": [
        {
          "name": "_did",
          "type": "string"
        }
      ],
      "name": "getPetBirthByDid",
      "outputs": [
        {
          "name": "_birth",
          "type": "uint256"
        }
      ],
      "payable": false,
      "stateMutability": "view",
      "type": "function"
    },
    {
      "constant": true,
      "inputs": [
        {
          "name": "_did",
          "type": "string"
        }
      ],
      "name": "getPetBreedByDid",
      "outputs": [
        {
          "name": "_breedOfDog",
          "type": "string"
        }
      ],
      "payable": false,
      "stateMutability": "view",
      "type": "function"
    },
    {
      "constant": true,
      "inputs": [
        {
          "name": "_did",
          "type": "string"
        }
      ],
      "name": "getPetGenderByDid",
      "outputs": [
        {
          "name": "_gender",
          "type": "string"
        }
      ],
      "payable": false,
      "stateMutability": "view",
      "type": "function"
    },
    {
      "constant": true,
      "inputs": [
        {
          "name": "_did",
          "type": "string"
        }
      ],
      "name": "getPetAdoptionDateByDid",
      "outputs": [
        {
          "name": "_adoptionDate",
          "type": "uint256"
        }
      ],
      "payable": false,
      "stateMutability": "view",
      "type": "function"
    },
    {
      "constant": true,
      "inputs": [
        {
          "name": "_did",
          "type": "string"
        }
      ],
      "name": "getPetIsNeuteringByDid",
      "outputs": [
        {
          "name": "_isNeutering",
          "type": "bool"
        }
      ],
      "payable": false,
      "stateMutability": "view",
      "type": "function"
    },
    {
      "constant": true,
      "inputs": [
        {
          "name": "_did",
          "type": "string"
        }
      ],
      "name": "getPetFurColorByDid",
      "outputs": [
        {
          "name": "_furColor",
          "type": "string"
        }
      ],
      "payable": false,
      "stateMutability": "view",
      "type": "function"
    },
    {
      "constant": true,
      "inputs": [
        {
          "name": "_did",
          "type": "string"
        }
      ],
      "name": "getPetHistoryByDid",
      "outputs": [
        {
          "name": "_vaccinationHistory",
          "type": "string"
        }
      ],
      "payable": false,
      "stateMutability": "view",
      "type": "function"
    },
    {
      "constant": true,
      "inputs": [
        {
          "name": "_did",
          "type": "string"
        }
      ],
      "name": "getPetNoteByDid",
      "outputs": [
        {
          "name": "_notes",
          "type": "string"
        }
      ],
      "payable": false,
      "stateMutability": "view",
      "type": "function"
    }
  ],
  "bytecode": "0x60806040526040518060400160405280600d81526020017f6469643a70657465727065743a000000000000000000000000000000000000008152506004908051906020019062000051929190620000f8565b503480156200005f57600080fd5b50336000806101000a81548173ffffffffffffffffffffffffffffffffffffffff021916908373ffffffffffffffffffffffffffffffffffffffff1602179055506001600660003373ffffffffffffffffffffffffffffffffffffffff1673ffffffffffffffffffffffffffffffffffffffff168152602001908152602001600020908054620000f19291906200017f565b50620004cd565b828054600181600116156101000203166002900490600052602060002090601f016020900481019282601f106200013b57805160ff19168380011785556200016c565b828001600101855582156200016c579182015b828111156200016b5782518255916020019190600101906200014e565b5b5090506200017b919062000319565b5090565b828054828255906000526020600020906009028101928215620003065760005260206000209160090282015b828111156200030557828260008201816000019080546001816001161561010002031660029004620001df92919062000341565b50600182018160010190805460018160011615610100020316600290046200020992919062000341565b50600282018160020190805460018160011615610100020316600290046200023392919062000341565b5060038201548160030155600482015481600401556005820160009054906101000a900460ff168160050160006101000a81548160ff021916908315150217905550600682018160060190805460018160011615610100020316600290046200029e92919062000341565b5060078201816007019080546001816001161561010002031660029004620002c892919062000341565b5060088201816008019080546001816001161561010002031660029004620002f292919062000341565b50505091600901919060090190620001ab565b5b509050620003159190620003cf565b5090565b6200033e91905b808211156200033a57600081600090555060010162000320565b5090565b90565b828054600181600116156101000203166002900490600052602060002090601f016020900481019282601f106200037c5780548555620003bc565b82800160010185558215620003bc57600052602060002091601f016020900482015b82811115620003bb5782548255916001019190600101906200039e565b5b509050620003cb919062000319565b5090565b6200047e91905b808211156200047a5760008082016000620003f2919062000481565b60018201600062000404919062000481565b60028201600062000416919062000481565b600382016000905560048201600090556005820160006101000a81549060ff02191690556006820160006200044c919062000481565b6007820160006200045e919062000481565b60088201600062000470919062000481565b50600901620003d6565b5090565b90565b50805460018160011615610100020316600290046000825580601f10620004a95750620004ca565b601f016020900490600052602060002090810190620004c9919062000319565b5b50565b612d4e80620004dd6000396000f3fe608060405234801561001057600080fd5b50600436106100e95760003560e01c80635c48963f1161008c578063a5f53e1911610066578063a5f53e1914610cef578063d093eb1e14610e23578063d0a83cd014611289578063f2fde38b146113bd576100e9565b80635c48963f146107a257806372905d7f14610b715780638da5cb5b14610ca5576100e9565b806341a5e19c116100c857806341a5e19c1461039c57806343663104146104d0578063489f51861461059f5780634c6ef429146106d3576100e9565b8062587086146100ee5780631963456e146101c15780633611ac87146102f5575b600080fd5b6101a76004803603602081101561010457600080fd5b810190808035906020019064010000000081111561012157600080fd5b82018360208201111561013357600080fd5b8035906020019184600183028401116401000000008311171561015557600080fd5b91908080601f016020809104026020016040519081016040528093929190818152602001838380828437600081840152601f19601f820116905080830192505050505050509192919290505050611401565b604051808215151515815260200191505060405180910390f35b61027a600480360360208110156101d757600080fd5b81019080803590602001906401000000008111156101f457600080fd5b82018360208201111561020657600080fd5b8035906020019184600183028401116401000000008311171561022857600080fd5b91908080601f016020809104026020016040519081016040528093929190818152602001838380828437600081840152601f19601f820116905080830192505050505050509192919290505050611484565b6040518080602001828103825283818151815260200191508051906020019080838360005b838110156102ba57808201518184015260208101905061029f565b50505050905090810190601f1680156102e75780820380516001836020036101000a031916815260200191505b509250505060405180910390f35b6103216004803603602081101561030b57600080fd5b8101908080359060200190929190505050611592565b6040518080602001828103825283818151815260200191508051906020019080838360005b83811015610361578082015181840152602081019050610346565b50505050905090810190601f16801561038e5780820380516001836020036101000a031916815260200191505b509250505060405180910390f35b610455600480360360208110156103b257600080fd5b81019080803590602001906401000000008111156103cf57600080fd5b8201836020820111156103e157600080fd5b8035906020019184600183028401116401000000008311171561040357600080fd5b91908080601f016020809104026020016040519081016040528093929190818152602001838380828437600081840152601f19601f820116905080830192505050505050509192919290505050611651565b6040518080602001828103825283818151815260200191508051906020019080838360005b8381101561049557808201518184015260208101905061047a565b50505050905090810190601f1680156104c25780820380516001836020036101000a031916815260200191505b509250505060405180910390f35b610589600480360360208110156104e657600080fd5b810190808035906020019064010000000081111561050357600080fd5b82018360208201111561051557600080fd5b8035906020019184600183028401116401000000008311171561053757600080fd5b91908080601f016020809104026020016040519081016040528093929190818152602001838380828437600081840152601f19601f82011690508083019250505050505050919291929050505061175f565b6040518082815260200191505060405180910390f35b610658600480360360208110156105b557600080fd5b81019080803590602001906401000000008111156105d257600080fd5b8201836020820111156105e457600080fd5b8035906020019184600183028401116401000000008311171561060657600080fd5b91908080601f016020809104026020016040519081016040528093929190818152602001838380828437600081840152601f19601f8201169050808301925050505050505091929192905050506117d5565b6040518080602001828103825283818151815260200191508051906020019080838360005b8381101561069857808201518184015260208101905061067d565b50505050905090810190601f1680156106c55780820380516001836020036101000a031916815260200191505b509250505060405180910390f35b61078c600480360360208110156106e957600080fd5b810190808035906020019064010000000081111561070657600080fd5b82018360208201111561071857600080fd5b8035906020019184600183028401116401000000008311171561073a57600080fd5b91908080601f016020809104026020016040519081016040528093929190818152602001838380828437600081840152601f19601f8201169050808301925050505050505091929192905050506118e3565b6040518082815260200191505060405180910390f35b610b6f60048036036101208110156107b957600080fd5b81019080803590602001906401000000008111156107d657600080fd5b8201836020820111156107e857600080fd5b8035906020019184600183028401116401000000008311171561080a57600080fd5b91908080601f016020809104026020016040519081016040528093929190818152602001838380828437600081840152601f19601f820116905080830192505050505050509192919290803590602001909291908035906020019064010000000081111561087757600080fd5b82018360208201111561088957600080fd5b803590602001918460018302840111640100000000831117156108ab57600080fd5b91908080601f016020809104026020016040519081016040528093929190818152602001838380828437600081840152601f19601f8201169050808301925050505050505091929192908035906020019064010000000081111561090e57600080fd5b82018360208201111561092057600080fd5b8035906020019184600183028401116401000000008311171561094257600080fd5b91908080601f016020809104026020016040519081016040528093929190818152602001838380828437600081840152601f19601f82011690508083019250505050505050919291929080359060200190929190803515159060200190929190803590602001906401000000008111156109bb57600080fd5b8201836020820111156109cd57600080fd5b803590602001918460018302840111640100000000831117156109ef57600080fd5b91908080601f016020809104026020016040519081016040528093929190818152602001838380828437600081840152601f19601f82011690508083019250505050505050919291929080359060200190640100000000811115610a5257600080fd5b820183602082011115610a6457600080fd5b80359060200191846001830284011164010000000083111715610a8657600080fd5b91908080601f016020809104026020016040519081016040528093929190818152602001838380828437600081840152601f19601f82011690508083019250505050505050919291929080359060200190640100000000811115610ae957600080fd5b820183602082011115610afb57600080fd5b80359060200191846001830284011164010000000083111715610b1d57600080fd5b91908080601f016020809104026020016040519081016040528093929190818152602001838380828437600081840152601f19601f820116905080830192505050505050509192919290505050611959565b005b610c2a60048036036020811015610b8757600080fd5b8101908080359060200190640100000000811115610ba457600080fd5b820183602082011115610bb657600080fd5b80359060200191846001830284011164010000000083111715610bd857600080fd5b91908080601f016020809104026020016040519081016040528093929190818152602001838380828437600081840152601f19601f820116905080830192505050505050509192919290505050611c35565b6040518080602001828103825283818151815260200191508051906020019080838360005b83811015610c6a578082015181840152602081019050610c4f565b50505050905090810190601f168015610c975780820380516001836020036101000a031916815260200191505b509250505060405180910390f35b610cad611d43565b604051808273ffffffffffffffffffffffffffffffffffffffff1673ffffffffffffffffffffffffffffffffffffffff16815260200191505060405180910390f35b610da860048036036020811015610d0557600080fd5b8101908080359060200190640100000000811115610d2257600080fd5b820183602082011115610d3457600080fd5b80359060200191846001830284011164010000000083111715610d5657600080fd5b91908080601f016020809104026020016040519081016040528093929190818152602001838380828437600081840152601f19601f820116905080830192505050505050509192919290505050611d68565b6040518080602001828103825283818151815260200191508051906020019080838360005b83811015610de8578082015181840152602081019050610dcd565b50505050905090810190601f168015610e155780820380516001836020036101000a031916815260200191505b509250505060405180910390f35b6112876004803603610140811015610e3a57600080fd5b8101908080359060200190640100000000811115610e5757600080fd5b820183602082011115610e6957600080fd5b80359060200191846001830284011164010000000083111715610e8b57600080fd5b91908080601f016020809104026020016040519081016040528093929190818152602001838380828437600081840152601f19601f82011690508083019250505050505050919291929080359060200190640100000000811115610eee57600080fd5b820183602082011115610f0057600080fd5b80359060200191846001830284011164010000000083111715610f2257600080fd5b91908080601f016020809104026020016040519081016040528093929190818152602001838380828437600081840152601f19601f8201169050808301925050505050505091929192908035906020019092919080359060200190640100000000811115610f8f57600080fd5b820183602082011115610fa157600080fd5b80359060200191846001830284011164010000000083111715610fc357600080fd5b91908080601f016020809104026020016040519081016040528093929190818152602001838380828437600081840152601f19601f8201169050808301925050505050505091929192908035906020019064010000000081111561102657600080fd5b82018360208201111561103857600080fd5b8035906020019184600183028401116401000000008311171561105a57600080fd5b91908080601f016020809104026020016040519081016040528093929190818152602001838380828437600081840152601f19601f82011690508083019250505050505050919291929080359060200190929190803515159060200190929190803590602001906401000000008111156110d357600080fd5b8201836020820111156110e557600080fd5b8035906020019184600183028401116401000000008311171561110757600080fd5b91908080601f016020809104026020016040519081016040528093929190818152602001838380828437600081840152601f19601f8201169050808301925050505050505091929192908035906020019064010000000081111561116a57600080fd5b82018360208201111561117c57600080fd5b8035906020019184600183028401116401000000008311171561119e57600080fd5b91908080601f016020809104026020016040519081016040528093929190818152602001838380828437600081840152601f19601f8201169050808301925050505050505091929192908035906020019064010000000081111561120157600080fd5b82018360208201111561121357600080fd5b8035906020019184600183028401116401000000008311171561123557600080fd5b91908080601f016020809104026020016040519081016040528093929190818152602001838380828437600081840152601f19601f820116905080830192505050505050509192919290505050611e76565b005b6113426004803603602081101561129f57600080fd5b81019080803590602001906401000000008111156112bc57600080fd5b8201836020820111156112ce57600080fd5b803590602001918460018302840111640100000000831117156112f057600080fd5b91908080601f016020809104026020016040519081016040528093929190818152602001838380828437600081840152601f19601f8201169050808301925050505050505091929192905050506122ee565b6040518080602001828103825283818151815260200191508051906020019080838360005b83811015611382578082015181840152602081019050611367565b50505050905090810190601f1680156113af5780820380516001836020036101000a031916815260200191505b509250505060405180910390f35b6113ff600480360360208110156113d357600080fd5b81019080803573ffffffffffffffffffffffffffffffffffffffff1690602001909291905050506123fc565b005b60006005826040518082805190602001908083835b602083106114395780518252602082019150602081019050602083039250611416565b6001836020036101000a038019825116818451168082178552505050505050905001915050908152602001604051809103902060050160009054906101000a900460ff169050919050565b60606005826040518082805190602001908083835b602083106114bc5780518252602082019150602081019050602083039250611499565b6001836020036101000a03801982511681845116808217855250505050505090500191505090815260200160405180910390206001018054600181600116156101000203166002900480601f0160208091040260200160405190810160405280929190818152602001828054600181600116156101000203166002900480156115865780601f1061155b57610100808354040283529160200191611586565b820191906000526020600020905b81548152906001019060200180831161156957829003601f168201915b50505050509050919050565b6002818154811061159f57fe5b90600052602060002001600091509050806000018054600181600116156101000203166002900480601f0160208091040260200160405190810160405280929190818152602001828054600181600116156101000203166002900480156116475780601f1061161c57610100808354040283529160200191611647565b820191906000526020600020905b81548152906001019060200180831161162a57829003601f168201915b5050505050905081565b60606005826040518082805190602001908083835b602083106116895780518252602082019150602081019050602083039250611666565b6001836020036101000a03801982511681845116808217855250505050505090500191505090815260200160405180910390206007018054600181600116156101000203166002900480601f0160208091040260200160405190810160405280929190818152602001828054600181600116156101000203166002900480156117535780601f1061172857610100808354040283529160200191611753565b820191906000526020600020905b81548152906001019060200180831161173657829003601f168201915b50505050509050919050565b60006005826040518082805190602001908083835b602083106117975780518252602082019150602081019050602083039250611774565b6001836020036101000a0380198251168184511680821785525050505050509050019150509081526020016040518091039020600301549050919050565b60606005826040518082805190602001908083835b6020831061180d57805182526020820191506020810190506020830392506117ea565b6001836020036101000a03801982511681845116808217855250505050505090500191505090815260200160405180910390206008018054600181600116156101000203166002900480601f0160208091040260200160405190810160405280929190818152602001828054600181600116156101000203166002900480156118d75780601f106118ac576101008083540402835291602001916118d7565b820191906000526020600020905b8154815290600101906020018083116118ba57829003601f168201915b50505050509050919050565b60006005826040518082805190602001908083835b6020831061191b57805182526020820191506020810190506020830392506118f8565b6001836020036101000a0380198251168184511680821785525050505050509050019150509081526020016040518091039020600401549050919050565b6000809054906101000a900473ffffffffffffffffffffffffffffffffffffffff1673ffffffffffffffffffffffffffffffffffffffff163373ffffffffffffffffffffffffffffffffffffffff16146119b257600080fd5b6119c389898989898989898961254d565b6001808054905003600381905550600260405180602001604052806119e96003546126ad565b8152509080600181540180825580915050906001820390600052602060002001600090919290919091506000820151816000019080519060200190611a2f929190612b76565b50505050611a476001805490506002805490506127fc565b15611c2a57600160035481548110611a5b57fe5b90600052602060002090600902016005600260035481548110611a7a57fe5b906000526020600020016000016040518082805460018160011615610100020316600290048015611ae25780601f10611ac0576101008083540402835291820191611ae2565b820191906000526020600020905b815481529060010190602001808311611ace575b5050915050908152602001604051809103902060008201816000019080546001816001161561010002031660029004611b1c929190612bf6565b5060018201816001019080546001816001161561010002031660029004611b44929190612bf6565b5060028201816002019080546001816001161561010002031660029004611b6c929190612bf6565b5060038201548160030155600482015481600401556005820160009054906101000a900460ff168160050160006101000a81548160ff02191690831515021790555060068201816006019080546001816001161561010002031660029004611bd5929190612bf6565b5060078201816007019080546001816001161561010002031660029004611bfd929190612bf6565b5060088201816008019080546001816001161561010002031660029004611c25929190612bf6565b509050505b505050505050505050565b60606005826040518082805190602001908083835b60208310611c6d5780518252602082019150602081019050602083039250611c4a565b6001836020036101000a03801982511681845116808217855250505050505090500191505090815260200160405180910390206000018054600181600116156101000203166002900480601f016020809104026020016040519081016040528092919081815260200182805460018160011615610100020316600290048015611d375780601f10611d0c57610100808354040283529160200191611d37565b820191906000526020600020905b815481529060010190602001808311611d1a57829003601f168201915b50505050509050919050565b6000809054906101000a900473ffffffffffffffffffffffffffffffffffffffff1681565b60606005826040518082805190602001908083835b60208310611da05780518252602082019150602081019050602083039250611d7d565b6001836020036101000a03801982511681845116808217855250505050505090500191505090815260200160405180910390206002018054600181600116156101000203166002900480601f016020809104026020016040519081016040528092919081815260200182805460018160011615610100020316600290048015611e6a5780601f10611e3f57610100808354040283529160200191611e6a565b820191906000526020600020905b815481529060010190602001808311611e4d57829003601f168201915b50505050509050919050565b8860058b6040518082805190602001908083835b60208310611ead5780518252602082019150602081019050602083039250611e8a565b6001836020036101000a03801982511681845116808217855250505050505090500191505090815260200160405180910390206000019080519060200190611ef6929190612c7d565b508760058b6040518082805190602001908083835b60208310611f2e5780518252602082019150602081019050602083039250611f0b565b6001836020036101000a0380198251168184511680821785525050505050509050019150509081526020016040518091039020600301819055508660058b6040518082805190602001908083835b60208310611f9f5780518252602082019150602081019050602083039250611f7c565b6001836020036101000a03801982511681845116808217855250505050505090500191505090815260200160405180910390206001019080519060200190611fe8929190612c7d565b508560058b6040518082805190602001908083835b602083106120205780518252602082019150602081019050602083039250611ffd565b6001836020036101000a03801982511681845116808217855250505050505090500191505090815260200160405180910390206002019080519060200190612069929190612c7d565b508460058b6040518082805190602001908083835b602083106120a1578051825260208201915060208101905060208303925061207e565b6001836020036101000a0380198251168184511680821785525050505050509050019150509081526020016040518091039020600401819055508360058b6040518082805190602001908083835b6020831061211257805182526020820191506020810190506020830392506120ef565b6001836020036101000a038019825116818451168082178552505050505050905001915050908152602001604051809103902060050160006101000a81548160ff0219169083151502179055508260058b6040518082805190602001908083835b602083106121965780518252602082019150602081019050602083039250612173565b6001836020036101000a038019825116818451168082178552505050505050905001915050908152602001604051809103902060060190805190602001906121df929190612c7d565b508160058b6040518082805190602001908083835b6020831061221757805182526020820191506020810190506020830392506121f4565b6001836020036101000a03801982511681845116808217855250505050505090500191505090815260200160405180910390206007019080519060200190612260929190612c7d565b508060058b6040518082805190602001908083835b602083106122985780518252602082019150602081019050602083039250612275565b6001836020036101000a038019825116818451168082178552505050505050905001915050908152602001604051809103902060080190805190602001906122e1929190612c7d565b5050505050505050505050565b60606005826040518082805190602001908083835b602083106123265780518252602082019150602081019050602083039250612303565b6001836020036101000a03801982511681845116808217855250505050505090500191505090815260200160405180910390206006018054600181600116156101000203166002900480601f0160208091040260200160405190810160405280929190818152602001828054600181600116156101000203166002900480156123f05780601f106123c5576101008083540402835291602001916123f0565b820191906000526020600020905b8154815290600101906020018083116123d357829003601f168201915b50505050509050919050565b6000809054906101000a900473ffffffffffffffffffffffffffffffffffffffff1673ffffffffffffffffffffffffffffffffffffffff163373ffffffffffffffffffffffffffffffffffffffff161461245557600080fd5b600073ffffffffffffffffffffffffffffffffffffffff168173ffffffffffffffffffffffffffffffffffffffff16141561248f57600080fd5b8073ffffffffffffffffffffffffffffffffffffffff166000809054906101000a900473ffffffffffffffffffffffffffffffffffffffff1673ffffffffffffffffffffffffffffffffffffffff167f8be0079c531659141344cd1fd0a4f28419497f9722a3daafe3b4186f6b6457e060405160405180910390a3806000806101000a81548173ffffffffffffffffffffffffffffffffffffffff021916908373ffffffffffffffffffffffffffffffffffffffff16021790555050565b60016040518061012001604052808b81526020018981526020018881526020018a81526020018781526020018615158152602001858152602001848152602001838152509080600181540180825580915050906001820390600052602060002090600902016000909192909190915060008201518160000190805190602001906125d8929190612b76565b5060208201518160010190805190602001906125f5929190612b76565b506040820151816002019080519060200190612612929190612b76565b50606082015181600301556080820151816004015560a08201518160050160006101000a81548160ff02191690831515021790555060c0820151816006019080519060200190612663929190612b76565b5060e0820151816007019080519060200190612680929190612b76565b5061010082015181600801908051906020019061269e929190612b76565b50505050505050505050505050565b6060806127163384604051602001808373ffffffffffffffffffffffffffffffffffffffff1673ffffffffffffffffffffffffffffffffffffffff1660601b8152601401828152602001925050506040516020818303038152906040528051906020012061281a565b9050606061272a82600a845103845161284b565b9050600481604051602001808380546001816001161561010002031660029004801561278d5780601f1061276b57610100808354040283529182019161278d565b820191906000526020600020905b815481529060010190602001808311612779575b505082805190602001908083835b602083106127be578051825260208201915060208101905060208303925061279b565b6001836020036101000a0380198251168184511680821785525050505050509050019250505060405160208183030381529060405292505050919050565b60008183141561280f5760019050612814565b600090505b92915050565b60606128448260405160200180828152602001915050604051602081830303815290604052612907565b9050919050565b60608084905060608484036040519080825280601f01601f1916602001820160405280156128885781602001600182028038833980820191505090505b50905060008590505b848110156128fa578281815181106128a557fe5b602001015160f81c60f81b82878303815181106128be57fe5b60200101907effffffffffffffffffffffffffffffffffffffffffffffffffffffffffffff1916908160001a9053508080600101915050612891565b5080925050509392505050565b6060806040518060400160405280601081526020017f30313233343536373839616263646566000000000000000000000000000000008152509050606060028451026002016040519080825280601f01601f19166020018201604052801561297e5781602001600182028038833980820191505090505b5090507f3000000000000000000000000000000000000000000000000000000000000000816000815181106129af57fe5b60200101907effffffffffffffffffffffffffffffffffffffffffffffffffffffffffffff1916908160001a9053507f780000000000000000000000000000000000000000000000000000000000000081600181518110612a0c57fe5b60200101907effffffffffffffffffffffffffffffffffffffffffffffffffffffffffffff1916908160001a90535060008090505b8451811015612b6b57826004868381518110612a5957fe5b602001015160f81c60f81b7effffffffffffffffffffffffffffffffffffffffffffffffffffffffffffff1916901c60f81c60ff1681518110612a9857fe5b602001015160f81c60f81b826002830260020181518110612ab557fe5b60200101907effffffffffffffffffffffffffffffffffffffffffffffffffffffffffffff1916908160001a90535082600f60f81b868381518110612af657fe5b602001015160f81c60f81b1660f81c60ff1681518110612b1257fe5b602001015160f81c60f81b826002830260030181518110612b2f57fe5b60200101907effffffffffffffffffffffffffffffffffffffffffffffffffffffffffffff1916908160001a9053508080600101915050612a41565b508092505050919050565b828054600181600116156101000203166002900490600052602060002090601f016020900481019282601f10612bb757805160ff1916838001178555612be5565b82800160010185558215612be5579182015b82811115612be4578251825591602001919060010190612bc9565b5b509050612bf29190612cfd565b5090565b828054600181600116156101000203166002900490600052602060002090601f016020900481019282601f10612c2f5780548555612c6c565b82800160010185558215612c6c57600052602060002091601f016020900482015b82811115612c6b578254825591600101919060010190612c50565b5b509050612c799190612cfd565b5090565b828054600181600116156101000203166002900490600052602060002090601f016020900481019282601f10612cbe57805160ff1916838001178555612cec565b82800160010185558215612cec579182015b82811115612ceb578251825591602001919060010190612cd0565b5b509050612cf99190612cfd565b5090565b612d1f91905b80821115612d1b576000816000905550600101612d03565b5090565b9056fea165627a7a72305820a0e447cd4e99113726ce186724ac01dac713ec9e18f4e0429302dc1b11e47d3b0029",
  "source": "// SPDX-License-Identifier: MIT\r\npragma solidity ^0.5.6;\r\n\r\nimport \"./Ownable.sol\";\r\nimport \"./String.sol\";\r\n\r\ncontract PeterPetDID is Ownable, StringFormat {\r\n    struct PeterPet {\r\n        string name; // \r\n        string breedOfDog; // \r\n        string gender; //\r\n        uint birth; //\r\n        uint adoptionDate; // \r\n        bool isNeutering; //  \r\n        string furColor; //\r\n        string vaccinationHistory; //\r\n        string notes; //\r\n    }\r\n\r\n    struct Did {\r\n        string did; // did \r\n    }\r\n\r\n    PeterPet[] peterPets;\r\n    Did[] public dids;\r\n\r\n    uint index;\r\n    string didPre = \"did:peterpet:\";\r\n\r\n    mapping(string => PeterPet) didToPetMapper;\r\n    mapping(address => PeterPet[]) addressToPetMapper;\r\n\r\n    constructor() public {\r\n        addressToPetMapper[msg.sender] = peterPets;\r\n    }\r\n\r\n    /*\r\n     * makeDid() \r\n     * - did  , did = did:peterpet: ( +   + )  \r\n     */\r\n    function makeDid(uint _index) private view returns (string memory) {\r\n        string memory didiHash = toString(keccak256(abi.encodePacked(msg.sender,_index))) ;\r\n        string memory didSub = subString(didiHash,bytes(didiHash).length-10,bytes(didiHash).length);\r\n        return string(abi.encodePacked(didPre,didSub));\r\n    }\r\n\r\n    /*\r\n     * addPet() \r\n     * -    peterPets  push \r\n     */\r\n    function addPet(string memory _name, uint _birth, string memory _breedOfDog, string memory _gender, uint _adoptionDate, \r\n    bool _isNeutering, string memory _furColor, string memory _vaccinationHistory, string memory _notes) private {\r\n        peterPets.push(PeterPet(_name,_breedOfDog, _gender,_birth, _adoptionDate, _isNeutering, _furColor, _vaccinationHistory, _notes));\r\n    }\r\n\r\n    /*\r\n     * addDid() \r\n     * - addPet() makeDid()     did  did  \r\n     */\r\n    function addDid(string memory _name, uint _birth, string memory _breedOfDog, string memory _gender, uint _adoptionDate, \r\n    bool _isNeutering, string memory _furColor, string memory _vaccinationHistory, string memory _notes) public onlyOwner {\r\n        addPet(_name, _birth, _breedOfDog, _gender, _adoptionDate, _isNeutering, _furColor, _vaccinationHistory, _notes);\r\n        index = peterPets.length - 1;\r\n        dids.push(Did(makeDid(index)));\r\n        if(checkLength(peterPets.length,dids.length)){\r\n            didToPetMapper[dids[index].did] = peterPets[index];\r\n        }\r\n    } \r\n\r\n    /*\r\n     * updateDid() \r\n     * - did       \r\n     */\r\n    function updateDid(string memory _did, string memory _name, uint _birth, string memory _breedOfDog, string memory _gender, uint _adoptionDate, \r\n    bool _isNeutering, string memory _furColor, string memory _vaccinationHistory, string memory _notes ) public {\r\n        didToPetMapper[_did].name = _name;\r\n        didToPetMapper[_did].birth = _birth;\r\n        didToPetMapper[_did].breedOfDog = _breedOfDog;\r\n        didToPetMapper[_did].gender = _gender;\r\n        didToPetMapper[_did].adoptionDate = _adoptionDate;\r\n        didToPetMapper[_did].isNeutering = _isNeutering;\r\n        didToPetMapper[_did].furColor = _furColor;\r\n        didToPetMapper[_did].vaccinationHistory = _vaccinationHistory;\r\n        didToPetMapper[_did].notes = _notes;\r\n    }\r\n\r\n    /*\r\n     * getPetInfoByDid() \r\n     * - pet  did   \r\n     */\r\n     function getPetNameByDid(string memory _did) public view returns(string memory _name) {\r\n        _name = didToPetMapper[_did].name; \r\n     }\r\n\r\n     function getPetBirthByDid(string memory _did) public view returns(uint _birth) {\r\n        _birth = didToPetMapper[_did].birth; \r\n     }\r\n\r\n     function getPetBreedByDid(string memory _did) public view returns(string memory _breedOfDog) {\r\n        _breedOfDog = didToPetMapper[_did].breedOfDog; \r\n     }\r\n\r\n     function getPetGenderByDid(string memory _did) public view returns(string memory _gender) {\r\n        _gender = didToPetMapper[_did].gender; \r\n     }\r\n\r\n     function getPetAdoptionDateByDid(string memory _did) public view returns(uint _adoptionDate) {\r\n        _adoptionDate = didToPetMapper[_did].adoptionDate; \r\n     }\r\n\r\n     function getPetIsNeuteringByDid(string memory _did) public view returns(bool _isNeutering) {\r\n        _isNeutering = didToPetMapper[_did].isNeutering; \r\n     }\r\n\r\n     function getPetFurColorByDid(string memory _did) public view returns(string memory _furColor) {\r\n        _furColor = didToPetMapper[_did].furColor; \r\n     }\r\n\r\n     function getPetHistoryByDid(string memory _did) public view returns(string memory _vaccinationHistory) {\r\n        _vaccinationHistory = didToPetMapper[_did].vaccinationHistory; \r\n     }\r\n\r\n     function getPetNoteByDid(string memory _did) public view returns(string memory _notes) {\r\n        _notes = didToPetMapper[_did].notes; \r\n     }\r\n     \r\n     /*\r\n     * checkLength() \r\n     * -  pet did   \r\n     */\r\n    function checkLength(uint _peterPetsLength, uint _didsLength) private pure returns (bool) {\r\n        if(_peterPetsLength == _didsLength) return true;\r\n        else return false;\r\n    }\r\n\r\n    function makeNonce () private pure returns (uint){\r\n\r\n    }\r\n}",
  "sourcePath": "C:\\Users\\sehoo\\Desktop\\\\peter-pet\\backend\\contracts\\PeterPetDid.sol",
  "compiler": {
    "name": "solc",
    "version": "0.5.6+commit.b259423e.Emscripten.clang"
  },
  "schemaVersion": "3.4.3",
  "updatedAt": "2021-09-09T06:25:52.610Z",
  "devdoc": {
    "methods": {
      "transferOwnership(address)": {
        "details": "Allows the current owner to transfer control of the contract to a newOwner.\r",
        "params": {
          "newOwner": "The address to transfer ownership to.\r"
        }
      }
    }
  },
  "userdoc": {
    "methods": {}
  }
}