{
  "contractName": "PeterPetDID",
  "abi": [
    {
      "constant": true,
      "inputs": [
        {
          "name": "",
          "type": "uint256"
        }
      ],
      "name": "peterPets",
      "outputs": [
        {
          "name": "imgHash",
          "type": "string"
        },
        {
          "name": "name",
          "type": "string"
        },
        {
          "name": "breedOfDog",
          "type": "string"
        },
        {
          "name": "gender",
          "type": "string"
        },
        {
          "name": "birth",
          "type": "uint256"
        },
        {
          "name": "adoptionDate",
          "type": "uint256"
        },
        {
          "name": "isNeutering",
          "type": "bool"
        },
        {
          "name": "furColor",
          "type": "string"
        },
        {
          "name": "vaccinationHistory",
          "type": "string"
        },
        {
          "name": "notes",
          "type": "string"
        }
      ],
      "payable": false,
      "stateMutability": "view",
      "type": "function"
    },
    {
      "constant": true,
      "inputs": [
        {
          "name": "",
          "type": "uint256"
        }
      ],
      "name": "dids",
      "outputs": [
        {
          "name": "did",
          "type": "string"
        }
      ],
      "payable": false,
      "stateMutability": "view",
      "type": "function"
    },
    {
      "constant": true,
      "inputs": [],
      "name": "owner",
      "outputs": [
        {
          "name": "",
          "type": "address"
        }
      ],
      "payable": false,
      "stateMutability": "view",
      "type": "function"
    },
    {
      "constant": false,
      "inputs": [
        {
          "name": "newOwner",
          "type": "address"
        }
      ],
      "name": "transferOwnership",
      "outputs": [],
      "payable": false,
      "stateMutability": "nonpayable",
      "type": "function"
    },
    {
      "inputs": [],
      "payable": false,
      "stateMutability": "nonpayable",
      "type": "constructor"
    },
    {
      "anonymous": false,
      "inputs": [
        {
          "indexed": true,
          "name": "previousOwner",
          "type": "address"
        },
        {
          "indexed": true,
          "name": "newOwner",
          "type": "address"
        }
      ],
      "name": "OwnershipTransferred",
      "type": "event"
    },
    {
      "constant": false,
      "inputs": [
        {
          "name": "_imgHash",
          "type": "string"
        },
        {
          "name": "_name",
          "type": "string"
        },
        {
          "name": "_birth",
          "type": "uint256"
        },
        {
          "name": "_breedOfDog",
          "type": "string"
        },
        {
          "name": "_gender",
          "type": "string"
        },
        {
          "name": "_adoptionDate",
          "type": "uint256"
        },
        {
          "name": "_isNeutering",
          "type": "bool"
        },
        {
          "name": "_furColor",
          "type": "string"
        },
        {
          "name": "_vaccinationHistory",
          "type": "string"
        },
        {
          "name": "_notes",
          "type": "string"
        }
      ],
      "name": "addDid",
      "outputs": [],
      "payable": false,
      "stateMutability": "nonpayable",
      "type": "function"
    },
    {
      "constant": false,
      "inputs": [
        {
          "name": "_did",
          "type": "string"
        },
        {
          "name": "_imgHash",
          "type": "string"
        },
        {
          "name": "_name",
          "type": "string"
        },
        {
          "name": "_birth",
          "type": "uint256"
        },
        {
          "name": "_breedOfDog",
          "type": "string"
        },
        {
          "name": "_gender",
          "type": "string"
        },
        {
          "name": "_adoptionDate",
          "type": "uint256"
        },
        {
          "name": "_isNeutering",
          "type": "bool"
        },
        {
          "name": "_furColor",
          "type": "string"
        },
        {
          "name": "_vaccinationHistory",
          "type": "string"
        },
        {
          "name": "_notes",
          "type": "string"
        }
      ],
      "name": "updateDid",
      "outputs": [],
      "payable": false,
      "stateMutability": "nonpayable",
      "type": "function"
    },
    {
      "constant": true,
      "inputs": [
        {
          "name": "_did",
          "type": "string"
        }
      ],
      "name": "getPetImgByDid",
      "outputs": [
        {
          "name": "_imgHash",
          "type": "string"
        }
      ],
      "payable": false,
      "stateMutability": "view",
      "type": "function"
    },
    {
      "constant": true,
      "inputs": [
        {
          "name": "_did",
          "type": "string"
        }
      ],
      "name": "getPetNameByDid",
      "outputs": [
        {
          "name": "_name",
          "type": "string"
        }
      ],
      "payable": false,
      "stateMutability": "view",
      "type": "function"
    },
    {
      "constant": true,
      "inputs": [
        {
          "name": "_did",
          "type": "string"
        }
      ],
      "name": "getPetBirthByDid",
      "outputs": [
        {
          "name": "_birth",
          "type": "uint256"
        }
      ],
      "payable": false,
      "stateMutability": "view",
      "type": "function"
    },
    {
      "constant": true,
      "inputs": [
        {
          "name": "_did",
          "type": "string"
        }
      ],
      "name": "getPetBreedByDid",
      "outputs": [
        {
          "name": "_breedOfDog",
          "type": "string"
        }
      ],
      "payable": false,
      "stateMutability": "view",
      "type": "function"
    },
    {
      "constant": true,
      "inputs": [
        {
          "name": "_did",
          "type": "string"
        }
      ],
      "name": "getPetGenderByDid",
      "outputs": [
        {
          "name": "_gender",
          "type": "string"
        }
      ],
      "payable": false,
      "stateMutability": "view",
      "type": "function"
    },
    {
      "constant": true,
      "inputs": [
        {
          "name": "_did",
          "type": "string"
        }
      ],
      "name": "getPetAdoptionDateByDid",
      "outputs": [
        {
          "name": "_adoptionDate",
          "type": "uint256"
        }
      ],
      "payable": false,
      "stateMutability": "view",
      "type": "function"
    },
    {
      "constant": true,
      "inputs": [
        {
          "name": "_did",
          "type": "string"
        }
      ],
      "name": "getPetIsNeuteringByDid",
      "outputs": [
        {
          "name": "_isNeutering",
          "type": "bool"
        }
      ],
      "payable": false,
      "stateMutability": "view",
      "type": "function"
    },
    {
      "constant": true,
      "inputs": [
        {
          "name": "_did",
          "type": "string"
        }
      ],
      "name": "getPetFurColorByDid",
      "outputs": [
        {
          "name": "_furColor",
          "type": "string"
        }
      ],
      "payable": false,
      "stateMutability": "view",
      "type": "function"
    },
    {
      "constant": true,
      "inputs": [
        {
          "name": "_did",
          "type": "string"
        }
      ],
      "name": "getPetHistoryByDid",
      "outputs": [
        {
          "name": "_vaccinationHistory",
          "type": "string"
        }
      ],
      "payable": false,
      "stateMutability": "view",
      "type": "function"
    },
    {
      "constant": true,
      "inputs": [
        {
          "name": "_did",
          "type": "string"
        }
      ],
      "name": "getPetNoteByDid",
      "outputs": [
        {
          "name": "_notes",
          "type": "string"
        }
      ],
      "payable": false,
      "stateMutability": "view",
      "type": "function"
    }
  ],
  "bytecode": "0x60806040526040518060400160405280600d81526020017f6469643a70657465727065743a000000000000000000000000000000000000008152506004908051906020019062000051929190620000f8565b503480156200005f57600080fd5b50336000806101000a81548173ffffffffffffffffffffffffffffffffffffffff021916908373ffffffffffffffffffffffffffffffffffffffff1602179055506001600660003373ffffffffffffffffffffffffffffffffffffffff1673ffffffffffffffffffffffffffffffffffffffff168152602001908152602001600020908054620000f19291906200017f565b5062000509565b828054600181600116156101000203166002900490600052602060002090601f016020900481019282601f106200013b57805160ff19168380011785556200016c565b828001600101855582156200016c579182015b828111156200016b5782518255916020019190600101906200014e565b5b5090506200017b919062000343565b5090565b82805482825590600052602060002090600a0281019282156200033057600052602060002091600a0282015b828111156200032f57828260008201816000019080546001816001161561010002031660029004620001df9291906200036b565b5060018201816001019080546001816001161561010002031660029004620002099291906200036b565b5060028201816002019080546001816001161561010002031660029004620002339291906200036b565b50600382018160030190805460018160011615610100020316600290046200025d9291906200036b565b5060048201548160040155600582015481600501556006820160009054906101000a900460ff168160060160006101000a81548160ff02191690831515021790555060078201816007019080546001816001161561010002031660029004620002c89291906200036b565b5060088201816008019080546001816001161561010002031660029004620002f29291906200036b565b50600982018160090190805460018160011615610100020316600290046200031c9291906200036b565b50505091600a019190600a0190620001ab565b5b5090506200033f9190620003f9565b5090565b6200036891905b80821115620003645760008160009055506001016200034a565b5090565b90565b828054600181600116156101000203166002900490600052602060002090601f016020900481019282601f10620003a65780548555620003e6565b82800160010185558215620003e657600052602060002091601f016020900482015b82811115620003e5578254825591600101919060010190620003c8565b5b509050620003f5919062000343565b5090565b620004ba91905b80821115620004b657600080820160006200041c9190620004bd565b6001820160006200042e9190620004bd565b600282016000620004409190620004bd565b600382016000620004529190620004bd565b600482016000905560058201600090556006820160006101000a81549060ff0219169055600782016000620004889190620004bd565b6008820160006200049a9190620004bd565b600982016000620004ac9190620004bd565b50600a0162000400565b5090565b90565b50805460018160011615610100020316600290046000825580601f10620004e5575062000506565b601f01602090049060005260206000209081019062000505919062000343565b5b50565b61274a80620005196000396000f3fe608060405234801561001057600080fd5b50600436106100ff5760003560e01c80634c6ef42911610097578063a5f53e1911610066578063a5f53e1914610313578063b6cbe6d614610343578063d0a83cd014610373578063f2fde38b146103a3576100ff565b80634c6ef4291461027957806372905d7f146102a9578063759c3c9b146102d95780638da5cb5b146102f5576100ff565b80633611ac87116100d35780633611ac87146101b957806341a5e19c146101e95780634366310414610219578063489f518614610249576100ff565b8062587086146101045780631963456e146101345780632e5df4131461016457806331df79ce1461019d575b600080fd5b61011e60048036036101199190810190611df4565b6103bf565b60405161012b91906123e8565b60405180910390f35b61014e60048036036101499190810190611df4565b6103f7565b60405161015b9190612425565b60405180910390f35b61017e60048036036101799190810190612168565b6104ba565b6040516101949a99989796959493929190612447565b60405180910390f35b6101b760048036036101b29190810190611e35565b610950565b005b6101d360048036036101ce9190810190612168565b610bd2565b6040516101e09190612403565b60405180910390f35b61020360048036036101fe9190810190611df4565b610c91565b6040516102109190612425565b60405180910390f35b610233600480360361022e9190810190611df4565b610d54565b6040516102409190612514565b60405180910390f35b610263600480360361025e9190810190611df4565b610d7f565b6040516102709190612425565b60405180910390f35b610293600480360361028e9190810190611df4565b610e42565b6040516102a09190612514565b60405180910390f35b6102c360048036036102be9190810190611df4565b610e6d565b6040516102d09190612425565b60405180910390f35b6102f360048036036102ee9190810190611fe5565b610f30565b005b6102fd61125b565b60405161030a91906123cd565b60405180910390f35b61032d60048036036103289190810190611df4565b611280565b60405161033a9190612425565b60405180910390f35b61035d60048036036103589190810190611df4565b611343565b60405161036a9190612425565b60405180910390f35b61038d60048036036103889190810190611df4565b611406565b60405161039a9190612425565b60405180910390f35b6103bd60048036036103b89190810190611dcb565b6114c9565b005b60006005826040516103d1919061237b565b908152602001604051809103902060060160009054906101000a900460ff169050919050565b6060600582604051610409919061237b565b90815260200160405180910390206002018054600181600116156101000203166002900480601f0160208091040260200160405190810160405280929190818152602001828054600181600116156101000203166002900480156104ae5780601f10610483576101008083540402835291602001916104ae565b820191906000526020600020905b81548152906001019060200180831161049157829003601f168201915b50505050509050919050565b600181815481106104c757fe5b90600052602060002090600a0201600091509050806000018054600181600116156101000203166002900480601f0160208091040260200160405190810160405280929190818152602001828054600181600116156101000203166002900480156105735780601f1061054857610100808354040283529160200191610573565b820191906000526020600020905b81548152906001019060200180831161055657829003601f168201915b505050505090806001018054600181600116156101000203166002900480601f0160208091040260200160405190810160405280929190818152602001828054600181600116156101000203166002900480156106115780601f106105e657610100808354040283529160200191610611565b820191906000526020600020905b8154815290600101906020018083116105f457829003601f168201915b505050505090806002018054600181600116156101000203166002900480601f0160208091040260200160405190810160405280929190818152602001828054600181600116156101000203166002900480156106af5780601f10610684576101008083540402835291602001916106af565b820191906000526020600020905b81548152906001019060200180831161069257829003601f168201915b505050505090806003018054600181600116156101000203166002900480601f01602080910402602001604051908101604052809291908181526020018280546001816001161561010002031660029004801561074d5780601f106107225761010080835404028352916020019161074d565b820191906000526020600020905b81548152906001019060200180831161073057829003601f168201915b5050505050908060040154908060050154908060060160009054906101000a900460ff1690806007018054600181600116156101000203166002900480601f01602080910402602001604051908101604052809291908181526020018280546001816001161561010002031660029004801561080a5780601f106107df5761010080835404028352916020019161080a565b820191906000526020600020905b8154815290600101906020018083116107ed57829003601f168201915b505050505090806008018054600181600116156101000203166002900480601f0160208091040260200160405190810160405280929190818152602001828054600181600116156101000203166002900480156108a85780601f1061087d576101008083540402835291602001916108a8565b820191906000526020600020905b81548152906001019060200180831161088b57829003601f168201915b505050505090806009018054600181600116156101000203166002900480601f0160208091040260200160405190810160405280929190818152602001828054600181600116156101000203166002900480156109465780601f1061091b57610100808354040283529160200191610946565b820191906000526020600020905b81548152906001019060200180831161092957829003601f168201915b505050505090508a565b60078b604051610960919061237b565b908152602001604051809103902060009054906101000a900473ffffffffffffffffffffffffffffffffffffffff1673ffffffffffffffffffffffffffffffffffffffff163373ffffffffffffffffffffffffffffffffffffffff16146109c657600080fd5b8960058c6040516109d7919061237b565b908152602001604051809103902060000190805190602001906109fb929190611b8f565b508860058c604051610a0d919061237b565b90815260200160405180910390206001019080519060200190610a31929190611b8f565b508760058c604051610a43919061237b565b9081526020016040518091039020600401819055508660058c604051610a69919061237b565b90815260200160405180910390206002019080519060200190610a8d929190611b8f565b508560058c604051610a9f919061237b565b90815260200160405180910390206003019080519060200190610ac3929190611b8f565b508460058c604051610ad5919061237b565b9081526020016040518091039020600501819055508360058c604051610afb919061237b565b908152602001604051809103902060060160006101000a81548160ff0219169083151502179055508260058c604051610b34919061237b565b90815260200160405180910390206007019080519060200190610b58929190611b8f565b508160058c604051610b6a919061237b565b90815260200160405180910390206008019080519060200190610b8e929190611b8f565b508060058c604051610ba0919061237b565b90815260200160405180910390206009019080519060200190610bc4929190611b8f565b505050505050505050505050565b60028181548110610bdf57fe5b90600052602060002001600091509050806000018054600181600116156101000203166002900480601f016020809104026020016040519081016040528092919081815260200182805460018160011615610100020316600290048015610c875780601f10610c5c57610100808354040283529160200191610c87565b820191906000526020600020905b815481529060010190602001808311610c6a57829003601f168201915b5050505050905081565b6060600582604051610ca3919061237b565b90815260200160405180910390206008018054600181600116156101000203166002900480601f016020809104026020016040519081016040528092919081815260200182805460018160011615610100020316600290048015610d485780601f10610d1d57610100808354040283529160200191610d48565b820191906000526020600020905b815481529060010190602001808311610d2b57829003601f168201915b50505050509050919050565b6000600582604051610d66919061237b565b9081526020016040518091039020600401549050919050565b6060600582604051610d91919061237b565b90815260200160405180910390206009018054600181600116156101000203166002900480601f016020809104026020016040519081016040528092919081815260200182805460018160011615610100020316600290048015610e365780601f10610e0b57610100808354040283529160200191610e36565b820191906000526020600020905b815481529060010190602001808311610e1957829003601f168201915b50505050509050919050565b6000600582604051610e54919061237b565b9081526020016040518091039020600501549050919050565b6060600582604051610e7f919061237b565b90815260200160405180910390206001018054600181600116156101000203166002900480601f016020809104026020016040519081016040528092919081815260200182805460018160011615610100020316600290048015610f245780601f10610ef957610100808354040283529160200191610f24565b820191906000526020600020905b815481529060010190602001808311610f0757829003601f168201915b50505050509050919050565b6000809054906101000a900473ffffffffffffffffffffffffffffffffffffffff1673ffffffffffffffffffffffffffffffffffffffff163373ffffffffffffffffffffffffffffffffffffffff1614610f8957600080fd5b610f9b8a8a8a8a8a8a8a8a8a8a61161a565b600180805490500360038190555060026040518060200160405280610fc160035461179f565b8152509080600181540180825580915050906001820390600052602060002001600090919290919091506000820151816000019080519060200190611007929190611c0f565b5050505061101f600180549050600280549050611815565b1561124f5760016003548154811061103357fe5b90600052602060002090600a0201600560026003548154811061105257fe5b9060005260206000200160000160405161106c9190612392565b9081526020016040518091039020600082018160000190805460018160011615610100020316600290046110a1929190611c8f565b50600182018160010190805460018160011615610100020316600290046110c9929190611c8f565b50600282018160020190805460018160011615610100020316600290046110f1929190611c8f565b5060038201816003019080546001816001161561010002031660029004611119929190611c8f565b5060048201548160040155600582015481600501556006820160009054906101000a900460ff168160060160006101000a81548160ff02191690831515021790555060078201816007019080546001816001161561010002031660029004611182929190611c8f565b50600882018160080190805460018160011615610100020316600290046111aa929190611c8f565b50600982018160090190805460018160011615610100020316600290046111d2929190611c8f565b509050503360076002600354815481106111e857fe5b906000526020600020016000016040516112029190612392565b908152602001604051809103902060006101000a81548173ffffffffffffffffffffffffffffffffffffffff021916908373ffffffffffffffffffffffffffffffffffffffff1602179055505b50505050505050505050565b6000809054906101000a900473ffffffffffffffffffffffffffffffffffffffff1681565b6060600582604051611292919061237b565b90815260200160405180910390206003018054600181600116156101000203166002900480601f0160208091040260200160405190810160405280929190818152602001828054600181600116156101000203166002900480156113375780601f1061130c57610100808354040283529160200191611337565b820191906000526020600020905b81548152906001019060200180831161131a57829003601f168201915b50505050509050919050565b6060600582604051611355919061237b565b90815260200160405180910390206000018054600181600116156101000203166002900480601f0160208091040260200160405190810160405280929190818152602001828054600181600116156101000203166002900480156113fa5780601f106113cf576101008083540402835291602001916113fa565b820191906000526020600020905b8154815290600101906020018083116113dd57829003601f168201915b50505050509050919050565b6060600582604051611418919061237b565b90815260200160405180910390206007018054600181600116156101000203166002900480601f0160208091040260200160405190810160405280929190818152602001828054600181600116156101000203166002900480156114bd5780601f10611492576101008083540402835291602001916114bd565b820191906000526020600020905b8154815290600101906020018083116114a057829003601f168201915b50505050509050919050565b6000809054906101000a900473ffffffffffffffffffffffffffffffffffffffff1673ffffffffffffffffffffffffffffffffffffffff163373ffffffffffffffffffffffffffffffffffffffff161461152257600080fd5b600073ffffffffffffffffffffffffffffffffffffffff168173ffffffffffffffffffffffffffffffffffffffff16141561155c57600080fd5b8073ffffffffffffffffffffffffffffffffffffffff166000809054906101000a900473ffffffffffffffffffffffffffffffffffffffff1673ffffffffffffffffffffffffffffffffffffffff167f8be0079c531659141344cd1fd0a4f28419497f9722a3daafe3b4186f6b6457e060405160405180910390a3806000806101000a81548173ffffffffffffffffffffffffffffffffffffffff021916908373ffffffffffffffffffffffffffffffffffffffff16021790555050565b60016040518061014001604052808c81526020018b81526020018981526020018881526020018a81526020018781526020018615158152602001858152602001848152602001838152509080600181540180825580915050906001820390600052602060002090600a02016000909192909190915060008201518160000190805190602001906116ab929190611c0f565b5060208201518160010190805190602001906116c8929190611c0f565b5060408201518160020190805190602001906116e5929190611c0f565b506060820151816003019080519060200190611702929190611c0f565b506080820151816004015560a0820151816005015560c08201518160060160006101000a81548160ff02191690831515021790555060e0820151816007019080519060200190611753929190611c0f565b50610100820151816008019080519060200190611771929190611c0f565b5061012082015181600901908051906020019061178f929190611c0f565b5050505050505050505050505050565b6060806117d333846040516020016117b8929190612334565b60405160208183030381529060405280519060200120611833565b905060606117e782600a8451038451611864565b90506004816040516020016117fd9291906123a9565b60405160208183030381529060405292505050919050565b600081831415611828576001905061182d565b600090505b92915050565b606061185d826040516020016118499190612360565b604051602081830303815290604052611920565b9050919050565b60608084905060608484036040519080825280601f01601f1916602001820160405280156118a15781602001600182028038833980820191505090505b50905060008590505b84811015611913578281815181106118be57fe5b602001015160f81c60f81b82878303815181106118d757fe5b60200101907effffffffffffffffffffffffffffffffffffffffffffffffffffffffffffff1916908160001a90535080806001019150506118aa565b5080925050509392505050565b6060806040518060400160405280601081526020017f30313233343536373839616263646566000000000000000000000000000000008152509050606060028451026002016040519080825280601f01601f1916602001820160405280156119975781602001600182028038833980820191505090505b5090507f3000000000000000000000000000000000000000000000000000000000000000816000815181106119c857fe5b60200101907effffffffffffffffffffffffffffffffffffffffffffffffffffffffffffff1916908160001a9053507f780000000000000000000000000000000000000000000000000000000000000081600181518110611a2557fe5b60200101907effffffffffffffffffffffffffffffffffffffffffffffffffffffffffffff1916908160001a90535060008090505b8451811015611b8457826004868381518110611a7257fe5b602001015160f81c60f81b7effffffffffffffffffffffffffffffffffffffffffffffffffffffffffffff1916901c60f81c60ff1681518110611ab157fe5b602001015160f81c60f81b826002830260020181518110611ace57fe5b60200101907effffffffffffffffffffffffffffffffffffffffffffffffffffffffffffff1916908160001a90535082600f60f81b868381518110611b0f57fe5b602001015160f81c60f81b1660f81c60ff1681518110611b2b57fe5b602001015160f81c60f81b826002830260030181518110611b4857fe5b60200101907effffffffffffffffffffffffffffffffffffffffffffffffffffffffffffff1916908160001a9053508080600101915050611a5a565b508092505050919050565b828054600181600116156101000203166002900490600052602060002090601f016020900481019282601f10611bd057805160ff1916838001178555611bfe565b82800160010185558215611bfe579182015b82811115611bfd578251825591602001919060010190611be2565b5b509050611c0b9190611d16565b5090565b828054600181600116156101000203166002900490600052602060002090601f016020900481019282601f10611c5057805160ff1916838001178555611c7e565b82800160010185558215611c7e579182015b82811115611c7d578251825591602001919060010190611c62565b5b509050611c8b9190611d16565b5090565b828054600181600116156101000203166002900490600052602060002090601f016020900481019282601f10611cc85780548555611d05565b82800160010185558215611d0557600052602060002091601f016020900482015b82811115611d04578254825591600101919060010190611ce9565b5b509050611d129190611d16565b5090565b611d3891905b80821115611d34576000816000905550600101611d1c565b5090565b90565b6000611d478235612630565b905092915050565b6000611d5b8235612642565b905092915050565b600082601f830112611d7457600080fd5b8135611d87611d828261255c565b61252f565b91508082526020830160208301858383011115611da357600080fd5b611dae838284612678565b50505092915050565b6000611dc3823561266e565b905092915050565b600060208284031215611ddd57600080fd5b6000611deb84828501611d3b565b91505092915050565b600060208284031215611e0657600080fd5b600082013567ffffffffffffffff811115611e2057600080fd5b611e2c84828501611d63565b91505092915050565b60008060008060008060008060008060006101608c8e031215611e5757600080fd5b60008c013567ffffffffffffffff811115611e7157600080fd5b611e7d8e828f01611d63565b9b505060208c013567ffffffffffffffff811115611e9a57600080fd5b611ea68e828f01611d63565b9a505060408c013567ffffffffffffffff811115611ec357600080fd5b611ecf8e828f01611d63565b9950506060611ee08e828f01611db7565b98505060808c013567ffffffffffffffff811115611efd57600080fd5b611f098e828f01611d63565b97505060a08c013567ffffffffffffffff811115611f2657600080fd5b611f328e828f01611d63565b96505060c0611f438e828f01611db7565b95505060e0611f548e828f01611d4f565b9450506101008c013567ffffffffffffffff811115611f7257600080fd5b611f7e8e828f01611d63565b9350506101208c013567ffffffffffffffff811115611f9c57600080fd5b611fa88e828f01611d63565b9250506101408c013567ffffffffffffffff811115611fc657600080fd5b611fd28e828f01611d63565b9150509295989b509295989b9093969950565b6000806000806000806000806000806101408b8d03121561200557600080fd5b60008b013567ffffffffffffffff81111561201f57600080fd5b61202b8d828e01611d63565b9a505060208b013567ffffffffffffffff81111561204857600080fd5b6120548d828e01611d63565b99505060406120658d828e01611db7565b98505060608b013567ffffffffffffffff81111561208257600080fd5b61208e8d828e01611d63565b97505060808b013567ffffffffffffffff8111156120ab57600080fd5b6120b78d828e01611d63565b96505060a06120c88d828e01611db7565b95505060c06120d98d828e01611d4f565b94505060e08b013567ffffffffffffffff8111156120f657600080fd5b6121028d828e01611d63565b9350506101008b013567ffffffffffffffff81111561212057600080fd5b61212c8d828e01611d63565b9250506101208b013567ffffffffffffffff81111561214a57600080fd5b6121568d828e01611d63565b9150509295989b9194979a5092959850565b60006020828403121561217a57600080fd5b600061218884828501611db7565b91505092915050565b6121a261219d826125de565b6126ba565b82525050565b6121b1816125cc565b82525050565b6121c0816125f0565b82525050565b6121d76121d2826125fc565b6126cc565b82525050565b60006121e8826125a5565b6121f281856125b0565b9350612202818560208601612687565b61220b816126f2565b840191505092915050565b6000612221826125a5565b61222b81856125c1565b935061223b818560208601612687565b80840191505092915050565b60006122528261259a565b61225c81856125b0565b935061226c818560208601612687565b612275816126f2565b840191505092915050565b60008154600181166000811461229d57600181146122c257612306565b607f60028304166122ae81876125c1565b955060ff1983168652808601935050612306565b600282046122d081876125c1565b95506122db85612588565b60005b828110156122fd578154818901526001820191506020810190506122de565b82880195505050505b505092915050565b61231781612626565b82525050565b61232e61232982612626565b6126e8565b82525050565b60006123408285612191565b601482019150612350828461231d565b6020820191508190509392505050565b600061236c82846121c6565b60208201915081905092915050565b60006123878284612216565b915081905092915050565b600061239e8284612280565b915081905092915050565b60006123b58285612280565b91506123c18284612216565b91508190509392505050565b60006020820190506123e260008301846121a8565b92915050565b60006020820190506123fd60008301846121b7565b92915050565b6000602082019050818103600083015261241d8184612247565b905092915050565b6000602082019050818103600083015261243f81846121dd565b905092915050565b6000610140820190508181036000830152612462818d612247565b90508181036020830152612476818c612247565b9050818103604083015261248a818b612247565b9050818103606083015261249e818a612247565b90506124ad608083018961230e565b6124ba60a083018861230e565b6124c760c08301876121b7565b81810360e08301526124d98186612247565b90508181036101008301526124ee8185612247565b90508181036101208301526125038184612247565b90509b9a5050505050505050505050565b6000602082019050612529600083018461230e565b92915050565b6000604051905081810181811067ffffffffffffffff8211171561255257600080fd5b8060405250919050565b600067ffffffffffffffff82111561257357600080fd5b601f19601f8301169050602081019050919050565b60008160005260206000209050919050565b600081519050919050565b600081519050919050565b600082825260208201905092915050565b600081905092915050565b60006125d782612606565b9050919050565b60006125e982612606565b9050919050565b60008115159050919050565b6000819050919050565b600073ffffffffffffffffffffffffffffffffffffffff82169050919050565b6000819050919050565b600061263b8261264e565b9050919050565b60008115159050919050565b600073ffffffffffffffffffffffffffffffffffffffff82169050919050565b6000819050919050565b82818337600083830152505050565b60005b838110156126a557808201518184015260208101905061268a565b838111156126b4576000848401525b50505050565b60006126c5826126d6565b9050919050565b6000819050919050565b60006126e182612703565b9050919050565b6000819050919050565b6000601f19601f8301169050919050565b60008160601b905091905056fea265627a7a72305820f9e1fe3a7ac167b2ce57b2157ec316cc93684dc753f9fb420572ef87e6b191cf6c6578706572696d656e74616cf50037",
  "source": "// SPDX-License-Identifier: MIT\r\npragma solidity ^0.5.6;\r\npragma experimental ABIEncoderV2;\r\n\r\nimport \"./Ownable.sol\";\r\nimport \"./String.sol\";\r\n\r\ncontract PeterPetDID is Ownable, StringFormat {\r\n    struct PeterPet {\r\n        string imgHash; // img IPFS \r\n        string name; // \r\n        string breedOfDog; // \r\n        string gender; //\r\n        uint birth; //\r\n        uint adoptionDate; // \r\n        bool isNeutering; //  \r\n        string furColor; //\r\n        string vaccinationHistory; //\r\n        string notes; //\r\n    }\r\n\r\n    struct Did {\r\n        string did; // did \r\n    }\r\n\r\n    PeterPet[] public peterPets;\r\n    Did[] public dids;\r\n\r\n    uint index;\r\n    string didPre = \"did:peterpet:\";\r\n\r\n    mapping(string => PeterPet) didToPetMapper;\r\n    mapping(address => PeterPet[]) addressToPetMapper;\r\n    mapping(string => address) wenddyFinder;\r\n\r\n    constructor() public {\r\n        addressToPetMapper[msg.sender] = peterPets;\r\n    }\r\n\r\n    /*\r\n     * makeDid() \r\n     * - did  , did = did:peterpet: ( +   + )  \r\n     */\r\n    function makeDid(uint _index) private view returns (string memory) {\r\n        string memory didiHash = toString(keccak256(abi.encodePacked(msg.sender,_index))) ;\r\n        string memory didSub = subString(didiHash,bytes(didiHash).length-10,bytes(didiHash).length);\r\n        return string(abi.encodePacked(didPre,didSub));\r\n    }\r\n\r\n    /*\r\n     * addPet() \r\n     * -    peterPets  push \r\n     */\r\n    function addPet(string memory _imgHash, string memory _name, uint _birth, string memory _breedOfDog, string memory _gender, uint _adoptionDate, \r\n    bool _isNeutering, string memory _furColor, string memory _vaccinationHistory, string memory _notes) private {\r\n        peterPets.push(PeterPet(_imgHash, _name,_breedOfDog, _gender,_birth, _adoptionDate, _isNeutering, _furColor, _vaccinationHistory, _notes));\r\n    }\r\n\r\n    /*\r\n     * addDid() \r\n     * - addPet() makeDid()     did  did  \r\n     */\r\n    function addDid(string memory _imgHash, string memory _name, uint _birth, string memory _breedOfDog, string memory _gender, uint _adoptionDate, \r\n    bool _isNeutering, string memory _furColor, string memory _vaccinationHistory, string memory _notes) public onlyOwner {\r\n        addPet(_imgHash, _name, _birth, _breedOfDog, _gender, _adoptionDate, _isNeutering, _furColor, _vaccinationHistory, _notes);\r\n        index = peterPets.length - 1;\r\n        dids.push(Did(makeDid(index)));\r\n        if(checkLength(peterPets.length,dids.length)){\r\n            didToPetMapper[dids[index].did] = peterPets[index];\r\n            wenddyFinder[dids[index].did] = msg.sender;\r\n        }\r\n    } \r\n\r\n    /*\r\n     * updateDid() \r\n     * - did       \r\n     */\r\n    function updateDid( string memory _did,string memory _imgHash, string memory _name, uint _birth, string memory _breedOfDog, string memory _gender, uint _adoptionDate, \r\n    bool _isNeutering, string memory _furColor, string memory _vaccinationHistory, string memory _notes ) public {\r\n        require(msg.sender == wenddyFinder[_did]);\r\n        didToPetMapper[_did].imgHash = _imgHash;\r\n        didToPetMapper[_did].name = _name;\r\n        didToPetMapper[_did].birth = _birth;\r\n        didToPetMapper[_did].breedOfDog = _breedOfDog;\r\n        didToPetMapper[_did].gender = _gender;\r\n        didToPetMapper[_did].adoptionDate = _adoptionDate;\r\n        didToPetMapper[_did].isNeutering = _isNeutering;\r\n        didToPetMapper[_did].furColor = _furColor;\r\n        didToPetMapper[_did].vaccinationHistory = _vaccinationHistory;\r\n        didToPetMapper[_did].notes = _notes;\r\n    }\r\n\r\n    /*\r\n     * getPetInfoByDid() \r\n     * - pet  did   \r\n     */\r\n\r\n     function getPetImgByDid(string memory _did) public view returns(string memory _imgHash) {\r\n        _imgHash = didToPetMapper[_did].imgHash; \r\n     }\r\n\r\n     function getPetNameByDid(string memory _did) public view returns(string memory _name) {\r\n        _name = didToPetMapper[_did].name; \r\n     }\r\n\r\n     function getPetBirthByDid(string memory _did) public view returns(uint _birth) {\r\n        _birth = didToPetMapper[_did].birth; \r\n     }\r\n\r\n     function getPetBreedByDid(string memory _did) public view returns(string memory _breedOfDog) {\r\n        _breedOfDog = didToPetMapper[_did].breedOfDog; \r\n     }\r\n\r\n     function getPetGenderByDid(string memory _did) public view returns(string memory _gender) {\r\n        _gender = didToPetMapper[_did].gender; \r\n     }\r\n\r\n     function getPetAdoptionDateByDid(string memory _did) public view returns(uint _adoptionDate) {\r\n        _adoptionDate = didToPetMapper[_did].adoptionDate; \r\n     }\r\n\r\n     function getPetIsNeuteringByDid(string memory _did) public view returns(bool _isNeutering) {\r\n        _isNeutering = didToPetMapper[_did].isNeutering; \r\n     }\r\n\r\n     function getPetFurColorByDid(string memory _did) public view returns(string memory _furColor) {\r\n        _furColor = didToPetMapper[_did].furColor; \r\n     }\r\n\r\n     function getPetHistoryByDid(string memory _did) public view returns(string memory _vaccinationHistory) {\r\n        _vaccinationHistory = didToPetMapper[_did].vaccinationHistory; \r\n     }\r\n\r\n     function getPetNoteByDid(string memory _did) public view returns(string memory _notes) {\r\n        _notes = didToPetMapper[_did].notes; \r\n     }\r\n     \r\n     /*\r\n     * checkLength() \r\n     * -  pet did   \r\n     */\r\n    function checkLength(uint _peterPetsLength, uint _didsLength) private pure returns (bool) {\r\n        if(_peterPetsLength == _didsLength) return true;\r\n        else return false;\r\n    }\r\n\r\n    function makeNonce () private pure returns (uint){\r\n\r\n    }\r\n}",
  "sourcePath": "C:\\Users\\sehoo\\Desktop\\\\peter-pet\\backend\\contracts\\PeterPetDid.sol",
  "compiler": {
    "name": "solc",
    "version": "0.5.6+commit.b259423e.Emscripten.clang"
  },
  "schemaVersion": "3.4.3",
  "updatedAt": "2021-09-11T07:58:48.338Z",
  "devdoc": {
    "methods": {
      "transferOwnership(address)": {
        "details": "Allows the current owner to transfer control of the contract to a newOwner.\r",
        "params": {
          "newOwner": "The address to transfer ownership to.\r"
        }
      }
    }
  },
  "userdoc": {
    "methods": {}
  }
}